S01000004C696768745761792E73726563EB
S113000012C022C020C01FC01EC01DC01CC01BC007
S113001035C019C018C017C016C015C014C013C00D
S113002012C011C010C011241FBECFE5D4E0DEBF42
S1130030CDBF20E0A0E6B0E001C01D92A736B20714
S1130040E1F76AD07AC0DCCF1F920F920FB60F92FD
S113005011248F939F93809166008F5F8093660035
S11300608FEA9CE39DBD8CBD8EB585608EBD9F914E
S11300708F910F900FBE0F901F9018951F920F92A3
S11300800FB60F9211248F939F93AF93BF938091D8
S1130090600090916100A0916200B09163000196AC
S11300A0A11DB11D8093600090936100A093620034
S11300B0B09363008091600090916100A091620010
S11300C0B09163000297A105B10518F01EBC10920F
S11300D06600BF91AF919F918F910F900FBE0F90CB
S11300E01F9018958A98929AB99AC1988BB7806490
S11300F08BBF85B7836085BF479A379808951FBC27
S11301001EBC89B7846089BF8FEA9CE39DBD8CBD0A
S11301108EB585608EBD0895E5DFF1DF109266002F
S11301207894C19A80916600811101C0C198809130
S111013066008823B9F3C19AF5CFF894FFCF87
S9030000FC
